:020000040001F9
:10B00000C8300020D5B00100EFB00100F1B0010060
:10B010000000000000000000000000000000000030
:10B02000000000000000000000000000F3B001007C
:10B030000000000000000000F5B00100F7B00100C2
:10B0400075BB0100F9B00100D1BD0100F9B00100EC
:10B05000F9B00100000000009DB6010011B601002A
:10B06000F9B00100F9B00100F9B00100F9B0010038
:10B07000F9B00100F9B00100F9B00100F9B0010028
:10B08000F9B00100C9BB0100F9B00100F9B001003D
:10B09000E9BB0100F9B00100F1BB0100F9B001000A
:10B0A000F9B00100F9B0010000000000000000004C
:10B0B0000000000000000000000000000000000090
:10B0C0000348854600F092FA004800472DDB010056
:10B0D000C83000200321094802680A43026008487A
:10B0E00002680A4302600748804707480047FEE7B6
:10B0F000FEE7FEE7FEE7FEE7FEE70000240500406E
:10B100005405004011BC0100C1B0010030B50B4630
:10B11000014600202022012409E00D46D5409D4231
:10B1200005D31D469540491B2546954040191546B7
:10B13000521E002DF1DC30BD70B5002425460028DC
:10B1400001DA01244042002901DA01254942FFF7D2
:10B15000DDFFAC4200D04042002C00D0494270BD1F
:10B160000048704750FB010003460B439B0703D088
:10B1700009E008C9121F08C0042AFAD203E00B78BC
:10B180000370401C491C521EF9D27047D2B201E034
:10B190000270401C491EFBD270470022F6E710B532
:10B1A00013460A4604461946FFF7F0FF204610BD35
:10B1B000421C0178401C0029FBD1801A7047000016
:10B1C000F0B507460846584087B0C00F04904800C5
:10B1D0000E46590040084908BC1A884105D2384635
:10B1E00031461E4617460B4602465800400810439B
:10B1F0004CD0300D039040055900400D490D05908D
:10B20000401A0290402872DA18030121000B090548
:10B210000843019004980092002805D001995242F9
:10B220000020884100920190029840210A1A019959
:10B23000009800F047F905460C466B4607CB00F036
:10B2400062F9C0197141039A0E0D0023D7175640B9
:10B250001A467A40164344D0049A002A2DD0029A06
:10B26000012A039A15DC1205C01A91410126360500
:10B27000001C7141D20F059ED207009301920296E5
:10B280002A46234600F05FF907B0F0BD3846314644
:10B29000FAE71605224A0F46B218C01AB741012133
:10B2A0000905001C4F4100187F41114618187941CB
:10B2B000E20F10436D19644113E0E2076D08154376
:10B2C0006408C2071443039A01261205C01A91416B
:10B2D0003605001C7141CE07400830434908C018AC
:10B2E00051412A46234600F021F9CDE7FFE70498B3
:10B2F00001224000C117121A00238B4104983146E5
:10B30000C417381AA141EEE730B40124E4076340C2
:10B3100030BC55E730B40124E407614030BC4FE74E
:10B320000000E0FFF0B51FB488B00B990998002425
:10B3300048400999C00F490049080991C0070B9975
:10B340000090490049080B9109990898A6460843BE
:10B350001CD00B990A98084318D009980124400082
:10B36000420D4800410D099824050003000B2043BD
:10B3700009900B980003000B20430B9050181C49B8
:10B380004018002201901446104605E000200146B6
:10B390000DB0F0BD032801DA034600E003239C460C
:10B3A000C11A0AAE0AE05F0008ADED5B4F00F75B23
:10B3B0007D430027AA187C41491C5B1E6145F2DDD4
:10B3C000410004AB5A522104120C0A43240C401CC5
:10B3D0000828DFDB019802900099704601910090E7
:10B3E000059B049A0799069800F0ADF8D0E7000095
:10B3F0000DFCFFFF0EB5C217C10F5040CA07401821
:10B400000021054B0293019200910A460B4600F081
:10B410009AF803B000BD00003304000070B5CD0FF2
:10B420004A0009030123090B1B0519430B4BED07C8
:10B430000024520D9A4201DA002070BD074B3433CC
:10B440009A4203DC9A1A00F04DF802E004495118C0
:10B4500088402C43F1D0404270BD0000FF03000043
:10B46000CDFBFFFFF0B51FB40646002082B00546B5
:10B470004024019100901BE0019922460F4630467E
:10B4800000F030F8049A059B801A994110D31046B9
:10B490001946224600F016F8361A8F4101972246C7
:10B4A00001200021009F00F00DF838184D41009058
:10B4B0002046641E0028DFDC019B009829463246A6
:10B4C00007B0F0BD10B5202A04DB0146203A9140B8
:10B4D000002010BD914020239C1A0346E3401943ED
:10B4E000904010BD10B5202A04DB0846203AD04019
:10B4F000002110BD0B46D340D0402024A21A914019
:10B500000843194610BD10B5202A06DBCB170846A4
:10B51000203A1041C1170B4306E00B461341D040BF
:10B520002024A21A91400843194610BD10B5002BE3
:10B5300008DA0024401C614192185B411A4301D192
:10B540004008400010BDF0B51FB482B005460C00A5
:10B5500003D0084600F0C6FC02E000F0C3FC203037
:10B560000246009021462846FFF7ACFF049B059A4F
:10B5700004460F4618431143084314D0184610439D
:10B580001BD0009840210A1A18460599FFF7AAFF18
:10B5900005460E46009A05990498FFF793FF084365
:10B5A00005D0012004E02046394607B0F0BD002058
:10B5B000C11705430E432C43374300990E9863058A
:10B5C000401A7905E40A00220C43FD0A0A3002D52C
:10B5D00000200146E9E70105101969410C9C0D9D09
:10B5E00000196941FFF7A2FFDFE70000064C0125C3
:10B5F000064E05E0E36807CC2B430C3C984710341B
:10B60000B442F7D3FFF760FD98FB0100B8FB0100DF
:10B61000FEB5134C0026E0680125124F002810D01B
:10B6200000F004FF00280BD00120B86068460670C7
:10B63000E0680190217C68460181A57421688847F3
:10B64000FEBD094806600120B860084806606946EA
:10B650000D7080688880A57468462168EFE7000057
:10B660000C2700200073004000710040007500406E
:10B6700070B50C4605460CE0142C01D9142600E0E8
:10B68000264632462946044801F07EFCA01B84B2BF
:10B69000AD19002CF0D170BDC0230020F0B50024FE
:10B6A000FF268BB00136012527460694304602F06E
:10B6B00075FE002807D054484068284203D0304621
:10B6C00002F064FE2C43361D6D007F1CB6B2042FC1
:10B6D000ECD3FF257D35284602F060FE002809D016
:10B6E000284602F053FE6807044306AA0121002001
:10B6F00002F038FE454D200714D0012700262742CE
:10B700000CD04348B200111808690969C004C00E82
:10B710008903AA58890F002A00D090477F00761C21
:10B72000042EECD3002C6DDA00200890401E63E05C
:10B73000281940300778B906890E0091002141563A
:10B74000491C49D009A9009802F082FA002843D088
:10B75000B8090190009801F047FF80002F58019828
:10B76000002F02D0032802D00DE0032834D1009826
:10B7700008ABC20841079446985C490F01228A40F1
:10B78000104362469854009805210907800040182C
:10B79000072109024018006806A98003800F029063
:10B7A000009802F055FA0028029802D0022802D030
:10B7B00012E0032810D10198032808D1029802282A
:10B7C0001ED00221009802F0B0FD761CF6B2002FC8
:10B7D00002D001990098B847641C042CA8D3002E0D
:10B7E00010D06A460121002002F0BCFD06990098A5
:10B7F000884207D00690089800263446099097E7BB
:10B800000321DFE70BB0F0BD00630040A826002055
:10B810000065004030B5A7B0002002F051FF0028BD
:10B8200001D000F0BDFF5FA1032002F02DFF002337
:10B830006C4A0521184600F0D7FF002801D000F01F
:10B84000AFFF694A6949032001F078FD002801D063
:10B8500000F0A6FF6946002001F04AFC002801D054
:10B8600000F09EFF6846007802287DD000206946DF
:10B8700008715F4800234068059048225D4905A88B
:10B8800003F016FA002801D000F08AFF6A46012171
:10B89000002003F0F5F9002801D000F081FF684690
:10B8A00003F09CF9002801D000F07AFF524803F021
:10B8B0008BF9002801D000F073FF1120694608724F
:10B8C0000E224EA102A87CDF002801D000F068FF04
:10B8D000002400940C2168460194018018214180C5
:10B8E000FF2184809131C1807ADF002801D000F0EF
:10B8F00057FF464800903B486946783001F0E2FA2D
:10B90000002801D000F04CFF3C2101A8FFF745FCC6
:10B9100002216846017184710621C1713C2110A881
:10B92000FFF73BFC012510A805823948159020211E
:10B930001FA8FFF732FC18A8C577192080010094D2
:10B9400023902494334B1FAA10A901A801F088F872
:10B95000002801D000F024FF1C216846FFF71DFCE1
:10B960000520C003009400E01AE001900F200004BD
:10B970000290032168460173C4810474264805902F
:10B9800026480690684601F0E7F9002801D000F04B
:10B9900007FF234A0021164800F00EFF27B030BDF4
:10B9A000012064E73A494E464F3A200A0A0A203DF0
:10B9B0003D3D3D3D3D3D3D3D20424C45205468656B
:10B9C000726D6973746F7220496E697469616C6914
:10B9D0007A696E672E2E2E203D3D3D3D3D3D3D0A50
:10B9E000000000004823002069D20100CD0C0000B7
:10B9F000A8F20100EC2000209DCE0100424C452021
:10BA0000546865726D6973746F720000FDE6010021
:10BA1000EE1F002025E7010029E8010051D70100B1
:10BA200071F101002AA1032002F02EFE032001F093
:10BA30000FF9002801D000F0B3FE314C002520782A
:10BA400000283ED0012802D002283AD105E000F0BB
:10BA50002FF921694018206132E000F029F92169AD
:10BA60004018E168FFF752FB0246206125A12948F2
:10BA700000F024FA274A28A1032002F00BFE2548F3
:10BA8000FFF796FB81B22348FFF7F2FDE5602649F8
:10BA900025612448254A096800BF00BF00BF00BFD8
:10BAA00000BF00BF00BF00BF914200D000BF0138FF
:10BAB000F2D11321A08876DF002801D000F070FEBB
:10BAC000257048DF0028BAD000F06AFEB7E7000012
:10BAD0003A494E464F3A202A2A2A2A2A2A2A20421E
:10BAE0004C4520546865726D6973746F722053748D
:10BAF000617274656421202A2A2A2A2A2A0A0000EF
:10BB0000E81F002054656D70203D202564282A46DA
:10BB100029000000DC2300203A494E464F3A2573A5
:10BB20000A00000010270000C82000200024F400B4
:10BB30008307FF22DB0E9A408907090E99400028EF
:10BB40000BDA0007000F0838830808489B00181814
:10BB5000C36993430B43C3617047830804489B0048
:10BB60001B181868904308431860704700ED00E008
:10BB700000E400E0F8B5FF20013002F071F8002485
:10BB800001250E4E0E4F002807D00E4804600120FC
:10BB9000B0607D70002001F02FFDFF20053002F025
:10BBA0005FF8002808D00748001D04600220B0603C
:10BBB000BD70012001F020FDF8BD00000003004031
:10BBC000942600200001004010B5064900200860BE
:10BBD00048608860C860034940390860486003F0E5
:10BBE00027F910BD4011014010B503F093F810BDC6
:10BBF00010B506484068002805D08047002801D0CD
:10BC000000F0CEFD10BD01F05FFE10BDA8200020A9
:10BC100010B501F0A7FE002805D01F491D48486057
:10BC2000C8131E4988611E48018CC9B201290BD175
:10BC3000828C120708D1028D1206120F042A03D13A
:10BC4000828D1206120F0AD0012921D1818C090799
:10BC50001ED1018D0906090F0A2904D007E0114AF7
:10BC600001219160F5E7828D1206120F05D00D2992
:10BC70000ED1808D0006000F0AD10B480168012902
:10BC800004D00A49016001680129FCD1C021416149
:10BC900010BD0000DFFF07C000050040006C004041
:10BCA000C00F00F00006004000EC06407593000055
:10BCB00070B5042000F096F82E49002801DA002023
:10BCC00002E0884200DD0846012189022A4A091A59
:10BCD0005043FFF731FA05460246F12427A103201D
:10BCE00002F0D8FC2C49E000421810468038C06FA2
:10BCF000A84203D9403A3820105E70BD27488542DB
:10BD000002D92720C04370BD0022601ED3005B18FB
:10BD10005E68AE4202D3DB68AB4202D9521C82425B
:10BD2000F4DB824205DBE000401840383824045F31
:10BD30000CE0D3005818C6684468AD1BA41B640807
:10BD4000AC4201D2CC5E01E00824045F14A123467A
:10BD5000032002F0A6FC2046FFF74CFB194A1A4BC1
:10BD6000FFF7E0FA0022194BFFF72AFAFFF756FB1C
:10BD700000B270BDFF030000102700003A494E4694
:10BD80004F3A74656D705F726573697374616E6349
:10BD900065203D2025640A0044F30100D03A0400E8
:10BDA0003A494E464F3A69203D2025642C2074655F
:10BDB0006D70657261747572655F76616C203D208F
:10BDC00025640A00CDCCCCCCCCCCFC3F000040405C
:10BDD00010B50249024803F0E9F810BDF026002032
:10BDE0000020004038B504461B481C4900680090FC
:10BDF000684601F0A9FF002801D000F0D1FC1848E6
:10BE0000447001F091FF16480121001F01F048FF26
:10BE100001F0BAFF144A13481449126800BF00BF6A
:10BE200000BF00BF00BF00BF00BF00BF8A4200D0FC
:10BE300000BF0138F2D10A4801F064FF01F0AAFF07
:10BE4000074C0222241FA25E09A1032002F022FC5B
:10BE50000220205E38BD000040F30100FDC3010058
:10BE6000C020002010270000C82000200024F4007B
:10BE70003A494E464F3A6164635F76616C203D20DB
:10BE800025640D0A000000000FB41CB50246002016
:10BE900007AC00290BD0491E01910092064B6A465F
:10BEA0002146069800F060F8009A002111701CBC31
:10BEB00008BC04B018470000DDC301000FB410B582
:10BEC00004A9074B02AA039800F04EF8044602A901
:10BED000002000F08EFA204610BC08BC04B01847C1
:10BEE000F3C301002021020C01D010211046020AE8
:10BEF00001D010460839020901D01046091F8208F6
:10BF000001D01046891E420801D0881E7047081AC9
:10BF1000704730B47446641E2578641CAB4200D26E
:10BF20001D46635D5B00E31830BC184702E008C89B
:10BF3000121F08C1002AFAD170477047002001E0A3
:10BF400001C1121F002AFBD170470000202804DA2B
:10BF5000012181400348014201D0012070470020A7
:10BF600070470000FC06FFBCFFB591B00F460546C8
:10BF7000002606E025280AD0149A139990476D1CD4
:10BF8000761C28780028F5D1304615B0F0BD002485
:10BF900000940121F34A029400E004436D1C2B78C5
:10BFA0000846203B98401042F7D128782A280ED026
:10BFB000022128780246303A092A15D8009A0A2325
:10BFC0005A43303A80180C436D1C0090F1E701CFC2
:10BFD0000090002805DA0120400304430098404205
:10BFE0000090022004436D1C28782E2815D10420CF
:10BFF000044368786D1C2A280AD101CF6D1C029079
:10C000000BE002990A225143303940186D1C02900E
:10C010002878014630390929F3D928786C2810D0BE
:10C0200006DC4C281AD068280ED06A2817D104E004
:10C03000742813D07A2812D110E00120400504435F
:10C040000CE00121090501E0032109050C43697891
:10C05000814203D10120000524186D1C6D1C287835
:10C0600003906E281ED00CDC632831D004DC00283D
:10C070008AD0582811D1B2E064287BD069280CD12D
:10C0800078E073282DD004DC6F2870D0702804D19C
:10C09000A7E075286CD078286BD0149A1399904734
:10C0A000761C62E06002400F022807D003280AD005
:10C0B000042838680AD006603F1D56E03868F1173A
:10C0C00006604160F8E738680680F5E70670F3E738
:10C0D0003878694608740020487404A80390012049
:10C0E00003E0386803900020C0433F1D61070FD56F
:10C0F000002101E00199491C029A0191914213DA51
:10C100008142F7DB019A0399895C0029F2D10BE0A7
:10C11000002101E00199491C01918142FADB019A59
:10C120000399895C0029F5D101990098139A401A66
:10C1300000902146149B00F03BF9019980194618A4
:10C1400007E0039803990078491C0391149A139906
:10C1500090470198401E0190401CF2D12146149B4B
:10C16000139A009800F014F986196D1C09E741E054
:10C1700033E034E00A200021049005916002410F71
:10C18000022905D001CFC2179446032905D007E044
:10C19000FF1DFF08FF0003CF06E000B2C217944660
:10C1A000042902D140B2C1178C4600226146944551
:10C1B00006DA0A460021404291418C462D2102E0D8
:10C1C000210504D52B216A461176012103E0E10700
:10C1D00001D02021F7E7019154E00A200BE0102064
:10C1E00009E0102004900021042004430820059158
:10C1F000029003E008200021059104906002410FA5
:10C20000022905D001CF00229446032906D006E07A
:10C21000FF1DFF08FF0003CF8C4603E080B2042916
:10C2200000D1C0B20021019121072BD503997029BB
:10C2300006D0049A1021059B4A401A4305D00EE00F
:10C2400040216A461176012108E06146014306D08B
:10C2500030216A4611760399517602210191049AA0
:10C260000821059B4A401A430CD16146014301D184
:10C27000610707D530216A461176012101910299A3
:10C28000491E02910399582904D037A103910FA99F
:10C290000F910DE039A1F9E76146059B049AFFF77C
:10C2A000E1F8039B8C469B5C0F9A521E0F92137011
:10C2B00061460143F0D10F9807A9081A2030039076
:10C2C000600704D5012000048443029801E00120A6
:10C2D00002900399884201DD401A00E000204118D5
:10C2E0000290019809180098401A0090E00306D4C3
:10C2F0002146149B139A009800F05AF886190020E2
:10C30000049008E006A9085C149A139990470498D1
:10C31000401C761C049001998842F3DBE0030CD5A5
:10C320002146149B139A009800F042F8861904E005
:10C33000149A302013999047761C0299481E029057
:10C340000029F5DC08E00F980F990078491C0F913F
:10C35000149A13999047761C0399481E039000295C
:10C36000F1DCFBE609280100303132333435363751
:10C370003839616263646566000000003031323331
:10C3800034353637383941424344454600000000D1
:10C39000F8B5044600251E461746880404D405E077
:10C3A00039462020B0476D1C641EF9D52846F8BDDB
:10C3B000FFB50446002581B01E46C80301D53027CD
:10C3C00000E02027880404D505E038460399B047EB
:10C3D0006D1C641EF9D5284605B0F0BD4A68002AD8
:10C3E00006D00A68531C0B6010704868401E4860F5
:10C3F00070470A68531C0B601070704770B5034695
:10C40000007800280FD1198900290CD0002204E0FF
:10C410005C685500645F2018521C8A42F8DBFEF706
:10C420008BFE0149488070BDBC20002070B51449C6
:10C430000020124B0860134908608C681248427C47
:10C44000C5685600521CAC53D2B24274047CA2425E
:10C4500012D2846800226468002C0AD00122846011
:10C460002068486001200860002A00D01860002081
:10C4700070BD44688460F3E7012070BD0070004027
:10C4800000710040007500400C270020F7B584B013
:10C49000064600251788158020300290407B144600
:10C4A000002806D03A462146059800F0C7FC050052
:10C4B00009D1B078002823D0059886462088001D31
:10C4C000B84202D90C2007B0F0BD684679DF0028D9
:10C4D000F9D1218803207246505420881921401C2C
:10C4E00080B22080115420887146401C80B2208088
:10C4F00041186846008802F0EDFD21884018208030
:10C50000F078002817D0218803230A46F356C91C67
:10C510000598B942D6D80221815421880122491CAC
:10C5200089B2218042542188491C89B22180435418
:10C530002088401C20807068002817D021880023A4
:10C54000C3560A46C91C0598B942BBD8022181547A
:10C5500021880A22491C89B2218042542188491C21
:10C5600089B2218043542088401C208030890028D3
:10C570000AD0009430460197062202210830059B1C
:10C5800002F016FE05009ED1308A00280AD00094E1
:10C5900030460197072203211030059B02F008FE68
:10C5A000050090D1308B00280AD0009430460197C6
:10C5B000152214211830059B02F0FAFD050082D1E6
:10C5C000306A002806D03B462246059901F07CF8E7
:10C5D0000500D8D1706A002806D03B46224605994E
:10C5E00001F0A8FA0500CED10298007B002807D000
:10C5F0003B4622463046059902F034FA0500C2D186
:10C600003078002807D03B4622463046059901F095
:10C61000C5FA0500B7D1284655E70000174A0021A2
:10C62000535C002B01D0012203E0491C0629F7D3FB
:10C6300000221349012806D002280BD0032810D06D
:10C64000042818D112E04878002803D0002A01D02D
:10C65000012070478878002803D0002A01D00220EA
:10C660007047C878002801D0032070470879002857
:10C6700001D00420704700207047000031200020C6
:10C68000AC24002010B502210122084600F024FE4F
:10C69000002801D0072812D107220221012000F032
:10C6A0001BFE002801D0072809D10A220021022000
:10C6B00000F012FE002801D0072800D1002010BD94
:10C6C00010B5022000F0A8FC10BD000070B50024D9
:10C6D000064D06E06968E000085C012101F0E4FB1A
:10C6E000641C28788442F5D3002070BD5C200020B3
:10C6F000F8B515460C460646052A01D20720F8BDB6
:10C7000001F0AAFC002803D101F078FC0028F6D142
:10C71000104900204E600C70C8608D6008610E4D9D
:10C720000DE0E00069688019009181786A465170D7
:10C7300000780A4A694601F003FC0028DFD1204650
:10C74000641EE4B20028ECD1054A0021024800F042
:10C7500033F8F8BD5C20002018F3010079D80100FF
:10C76000C1D7010006A1012001F08EFFBFF34F8F5A
:10C770000A490948C860BFF34F8F00BFFDE70000BA
:10C780004150505F4552524F523A4552524F523AE1
:10C79000466174616C0D0A000400FA0500ED00E0CA
:10C7A0000EB50021029000916A4601910148FFF701
:10C7B000D9FF0EBD014000000A4B5B68002B07D07B
:10C7C000002A07D0002805D00068037C002B03D086
:10C7D00008207047072070470023037441744261AA
:10C7E0001846704780200020FFB5074690070025B7
:10C7F00081B01E461446002825D1002C23D002F01B
:10C8000043F83046114EF0603046103005704570E8
:10C810000299817044607560357001240C48757010
:10C820002405046003211420FFF782F909480460FD
:10C83000094CA76003211120FFF77AF96068B06006
:10C84000002005B0F0BD0720FBE7000070200020AD
:10C8500080E200E000E100E000150140FEB51F4B62
:10C860005B68002B30D000282ED0052901D207208C
:10C87000FEBD4369002B27D0437C012B26D0002727
:10C88000029104460025694616460D70684600F080
:10C890003DF801A802F056FC002819D001210170D2
:10C8A0000F49446049688160029907614661C1602F
:10C8B00068460A49007948706846007800F044F8F4
:10C8C00002F06AFA2846FEBD0820FEBD0F46D7E7F3
:10C8D00068460425007800F037F8F3E78020002050
:10C8E0000015014010B50849496800290AD0002800
:10C8F00008D04169002905D000210174022102F00D
:10C9000073FA10BD082010BD8020002030B5EFF371
:10C91000108172B6094A54680123002C04D00370B8
:10C92000002900D162B630BD5360054B1D68054C2F
:10C93000254015601C6000220270F1E79420002061
:10C9400080E100E0FC06FFBC08494A68002A0CD0E0
:10C9500000280AD1EFF3108072B60A68044B1A60FF
:10C9600000224A60002800D162B67047942000205F
:10C9700000E100E0F8B5074608680C460526411CB2
:10C9800001253602002906D02946814019488160D8
:10C99000206801F0AFFC6068411C02D0002101F06A
:10C9A000A0FC3968A06989194862607D217D3A68D8
:10C9B00008439119C866386806CC80194261C16085
:10C9C000207B083C012814D1A068411C02D0002122
:10C9D00001F087FCE068411C05D085400548856072
:10C9E000E06801F087FC3A68E1689219A0689160FC
:10C9F0001061F8BD00050050F0B50C4693B01F2142
:10CA00006A461180072600279180002809D0C17846
:10CA100049070DD502A9FFF739FD002809D102AD5C
:10CA200001E000251780002C0ED0E078002802D00D
:10CA3000304613B0F0BD01AA0AA92046FFF726FD33
:10CA40000028F6D10AAA02E06846002287806846DC
:10CA50008088C3B268460088C1B2284672DFE8E722
:10CA6000FFB581B01E460A9F1346040047D0002B35
:10CA700045D0504D012028700020E8702022194632
:10CA80004D48FEF771FB00206F61C0432E61288185
:10CA9000284607211830FEF780FB47483C2120300C
:10CAA000FEF77BFB4448217820300170A17881702B
:10CAB000E178C170617841703F4A656923695563C7
:10CAC000114613632031E368A268CB608A603A495B
:10CAD000E369A269CB638A63616A00291AD00146BF
:10CAE0003C310246483241628A60636A1B880B808F
:10CAF000616A436A898899800021436A07E00E20B1
:10CB000005B0F0BD656AAD686D5C5554491C9D88E3
:10CB10008D42F7D8A16A00291CD0274A94321146C9
:10CB20000C398A608162A36A9B888B80A16A836AC0
:10CB3000098819800021836A04E0A56AAD686D5CEC
:10CB40005554491C9D888D42F7D82C210A5D1A49FD
:10CB500040310A73216A002909D016490A3101625D
:10CB6000226A52884A80216A026A098811806168B3
:10CB7000002900D04160104A0E490020B332203114
:10CB8000C3001B1A85009B180C68401C63510828C1
:10CB9000F6DB094A0020EB32030185009B188C6804
:10CBA000401C63510828F7DB034802992030FFF747
:10CBB00023FFA5E718200020AC24002010B5018831
:10CBC000134C102915D0112919D01B2910D1007A26
:10CBD00000280DD1E0780521401CFEF797FA0846A1
:10CBE00000F036F8002803D06169002900D088479A
:10CBF00010BD817D0129FBD18088208110BD0021DD
:10CC00006171808821898842F8D10120E8E700001D
:10CC10001820002010B574DF0B4C012060710B4907
:10CC20000620C87000210948FFF7E6FE002809D158
:10CC3000E07800F00DF8002803D06169002900D0E9
:10CC40008847002010BD000018200020CC240020C0
:10CC5000F1B53F4C88B0207800280AD00898E070E1
:10CC600006A800F0FDFD06980125002804D0657097
:10CC70006AE0082009B0F0BD3548002707211830C8
:10CC8000FEF78BFA334E7078002802D0E078012846
:10CC900007D0B07800280CD0E078012801D0022815
:10CCA00007D12169002903D025710820884700E0B9
:10CCB00027710898FFF7B2FCE0702169002909D0BC
:10CCC000032801D0042805D13078002802D06079EB
:10CCD000002811D0A77118216846FEF75EFA684651
:10CCE00007700772E1781A480B001830FFF711F946
:10CCF000052E080F191D2000A57107208847EAE7B7
:10CD0000A5700190684605704782078213E00221F2
:10CD1000A170019068460570B18941823189018214
:10CD200009E0684601F0E6FE02E0684601F00EFF09
:10CD3000E078002803D0684673DF00289AD1216983
:10CD4000002901D0A0788847002093E7A770F6E774
:10CD500018200020AC24002070B5054601461C2296
:10CD60000E48FEF701FA0E4C0026267029680029AD
:10CD700006D00822201DFEF7F7F9201D7ADF02E019
:10CD80000748001D7BDF002807D1401E60806670C9
:10CD9000044A00210448FFF70FFD70BD78260020EB
:10CDA00048200020E1F00100FCF20100F8B5214C20
:10CDB0000146028800261E48E589102A13D01E4F1E
:10CDC000112A1FD0122A2BD0502A1AD1881DC988A7
:10CDD000A94216D14189022913D10C3000F0FEF886
:10CDE00000280CD112E08A880446428010480822AC
:10CDF0000C301831FEF7B8F96670002D01D100F043
:10CE0000ABFCF8BD0021C943418046703868FFF78C
:10CE100069FD0028F5D0A1690029F2D08847F8BD46
:10CE2000034808220C300831FEF79EF9E7E70000BE
:10CE30004820002078260020FCF201007CB5054641
:10CE400008880C460930904201D90C207CBD684608
:10CE500071DF0028FAD121880820685420881B211E
:10CE6000401C80B220802954208800A9401C80B238
:10CE70002080401906220131FEF776F920886946A4
:10CE8000801D80B220800978002900D0012129541A
:10CE90002088401C208000207CBD000010B5044686
:10CEA000FFF784FF2146064800F040F8204601F0D5
:10CEB0003FFC2046FFF782FE204600F039F910BD06
:10CEC000C023002030B5184B0D4604000FCB85B0B1
:10CED00003936B4607C324D0002D22D00020C0430B
:10CEE000A0822868A0610020A0752146684663DF03
:10CEF000002814D121786846817401210182A21C86
:10CF000004A90120A0DF002809D12946204601F00C
:10CF1000F0FC002803D12946204601F0F2FF05B0BD
:10CF200030BD0E20FBE7000000F3010010B5002823
:10CF30001BD0002919D00A88102A17D0112A17D01F
:10CF4000502A12D104468A1DC888238A1231984279
:10CF500002D15389022B0FD0A388984205D1A3692F
:10CF6000002B02D052892046984710BD898801E0E5
:10CF70000021C943818210BD084600F02FF8002827
:10CF800000D00120A07510BD07B584B000280DD0D9
:10CF9000828A114B9A420BD0827D002A08D06A46C1
:10CFA000128B142A06D9072007B000BD0E20FBE71C
:10CFB0000820F9E7002200920192029203928289EE
:10CFC0006B461A80039106A9029101219970808A0B
:10CFD0006946A6DFE8E70000FFFF0000417802781D
:10CFE00008021043C007C00F704700000149085CE9
:10CFF00070470000CCF201000549095C0548006952
:10D00000C840C007C00F00D0012001214840704730
:10D01000CCF201000005005005490B5C05494A6847
:10D0200001209840034693438B601040C8607047CE
:10D03000C8F201000005005010B50349085C012149
:10D0400001F084F910BD0000C8F2010010B50349D9
:10D05000085C002101F07AF910BD0000C8F201005F
:10D060000549095C05484068C840C007C00F00D0AA
:10D070000120012148407047C8F20100000500501E
:10D080007CB50024074E2546305D01220095002323
:10D090001146019501F0E0F8641C042CF4D300F073
:10D0A00003F87CBDC8F2010010B500242046FFF74C
:10D0B000C3FF641C042CF9D310BD10B50024204616
:10D0C000FFF7C4FF641C042CF9D310BD02460020F6
:10D0D00010B5C043054B00215C5C944201D1084669
:10D0E00010BD491C0429F7D310BD0000CCF201008B
:10D0F00070B50E4E00250C46306000290DD0012081
:10D1000000F0AEF8002801D0022005E0022000F077
:10D11000A7F8002800D00B2020707068002802D1EA
:10D12000FFF7B0FA0546284670BD00001020002029
:10D1300010B51C4C0188606810290DD011290AD146
:10D14000401E606007D1FFF79DFA002803D02168D8
:10D15000002900D0884710BD00281ED101220021DF
:10D16000022000F0B9F8002801D0072811D10722C9
:10D170000221012000F0B0F8002801D0072808D1D2
:10D1800002210422084600F0A7F8002805D007284D
:10D1900003D02168002900D088476068401C606087
:10D1A00010BD00001020002010B5022000F0D2F9C0
:10D1B000002801D0062807D1012000F0CBF9002873
:10D1C00001D0062800D1002010BD0000F3B581B0C9
:10D1D0000D460198FFF77AFF0446042813D21D4834
:10D1E0001D4F1E4E002D27D0012D0DD0022D0AD12E
:10D1F00060002018C0194578002D04D0F16800297E
:10D2000001D028468847FEBD610061187D5CCF19BA
:10D21000797800290BD071680A2251430F4A80683F
:10D22000921CFFF71BFB002801D10198B0700B483E
:10D23000B97810300155DFE78068FFF753FB0748E6
:10D24000610061181030C919005D8D78A842D3D0F3
:10D25000FEBD0000D0F2010080240020FC1F002051
:10D2600010B5FFF7C9FE10BD10B5134902468888F6
:10D27000042A10D0072A16D00A2A09D00E2A06D16D
:10D280000878002803D10DA1032001F0FDF910BD9D
:10D2900001F086FC10BD132176DF09E00028F9D0EB
:10D2A000FFF77EFA10BD0B498842FBD1FFF7B2FCB5
:10D2B0000828F3D110BD0000E81F00203A494E466F
:10D2C0004F3A4253505F4556454E545F4B45595F68
:10D2D000300A0000FFFF000070B50023042811D2BF
:10D2E000440004190D4D012A02D101290DD000225C
:10D2F00046008019094E801900290CD0012906D05A
:10D30000022906D00723184670BD0E30C2B22A5536
:10D31000F9E74270F7E78270F5E70000802400200B
:10D3200010B5054A0146127A0020D20702D00846FD
:10D3300000F050F810BD0000FC1F0020F8B50646B4
:10D340001F4800248660C26041600F46B00720D5A8
:10D350000025012211462846FFF7BEFF6D1C04463A
:10D36000042D02D2002CF4D013E0002C11D17A0845
:10D3700004211448FFF7BCF904000AD1FFF7A6F90D
:10D38000040006D10F48104A0021001FFFF714FACD
:10D390000446F00701D0FFF773FE002C0ED10948B8
:10D3A0000A4A00210C38FFF707FA040006D10548A5
:10D3B000074A01210838FFF7FFF904462046F8BD67
:10D3C000FC1F0020DCF2010077D50100ADD901007F
:10D3D000C1C60100F8B55D4C0546607800260028FE
:10D3E00003D000206070FFF75FFE0120584F2B0034
:10D3F000FEF78FFD18970D0D2E3D4A5F64686F682C
:10D400006FA97777777777979A9DA0A9A99500203C
:10D41000FFF726FE00280AD00020FFF70DFE022DA0
:10D4200002D1E120C0000BE07D20400108E0002097
:10D43000FFF70CFE022D01D1C82001E0FF20913042
:10D4400025706421FDF762FE6168414300222BE0F4
:10D450000020FFF705FE002805D00020FFF7ECFDB7
:10D4600019204001ECE70020FFF7F0FDE4E7002081
:10D47000FFF7F6FD002803D00020FFF7DDFDD3E71E
:10D480000020FFF7E3FDD9E70020FFF7E9FD0028C2
:10D4900003D00020FFF7D0FD02E00020FFF7D6FD0B
:10D4A00025706068410000223868FFF7D7F906460A
:10D4B00035E00020FFF7B0FD257007E000203FE0D9
:10D4C00025702CE060700120FFF7A6FD0022616846
:10D4D000EAE760700120FFF79FFD60688100411856
:10D4E000E1E77868FFF7FEF906461120401B01D0FE
:10D4F000002E03D00220FFF79FFD10E001280BD97A
:10D50000C82148436421FDF701FE616800224143C0
:10D510007868FFF7A3F906460220FFF797FD30462B
:10D52000F8BDFFF7C1FDCBE7FFF7BEFDC6E7FFF78C
:10D53000BBFD04E0FFF7B8FD0020FFF787FD0120E9
:10D54000FFF784FDBCE7FFF7B8FDB9E7FC1F00203B
:10D55000D0F2010010B5FFF749FD032100F0D4FE21
:10D56000002010BD002901DA002070470268511820
:10D5700001600120704710B500780221FFF726FEF8
:10D5800010BD00000022D243830004490428CA5081
:10D5900002D308182030027770470000A826002028
:10D5A000F0B50025ED43002A02D00023042601E057
:10D5B000042308260B4C04E09F00E7597F1C04D08D
:10D5C0005B1CB342F8D32846F0BD26185DB2203666
:10D5D00035709E00A151002AF5D1E118203108775D
:10D5E000F1E70000A826002002490918202008566B
:10D5F00070470000A826002070B5084C050009D02F
:10D6000010342168002907D008682060496828463E
:10D610008847F6E70834F4E770BD00009426002040
:10D62000F8B52348416800293ED00E6821494C686E
:10D6300087688078E11B0D022D0AED1C002814D1AB
:10D6400001201D4A000450601B4A403A50601B49AB
:10D65000400008601A4908601A49012008602F201C
:10D6600000F006FB124901208870B54200D2354611
:10D67000E81900020F4B000A403318600D4A516848
:10D68000001B091B0902090A0002000AC91C814289
:10D6900009D9506818602F2000F0EAFA01200749E4
:10D6A000400480390860F8BD01F0EEF8F8BD0000D4
:10D6B00070200020001501404013014080E200E08E
:10D6C00000E100E000100140F8B50646108814465D
:10D6D0008446801D0D46984201D90C20F8BD328841
:10D6E0000720062AFAD31927FF01184BBA4201D99D
:10D6F0009A42F3D171880629F0D3B94201D99942EF
:10D70000ECD19A4203D0994201D08A42E6D8052151
:10D710006046295420881221401C80B22080295460
:10D720002088401C80B220804119308801F0D2FC52
:10D730002188401880B220804119708801F0CAFC0D
:10D740002188401820800020F8BD0000FFFF000065
:10D7500010B5FFF725F810BDF8B5164800F0F4F83D
:10D76000144D00260C3D144C002807D06169002997
:10D770001CD001206A461070684616E02878002800
:10D7800005D06169002911D0684606700DE06878FF
:10D7900000280DD0A168094800220068FFF75EF854
:10D7A000002803D0A169002900D088472E70F8BD59
:10D7B0006168F0E75420002078260020FCF2010088
:10D7C000F8B500260124154D23E06968F0004718DC
:10D7D000387821462A698140114218D08A432A614B
:10D7E00000F002FC3A782146EB689140194003466C
:10D7F000934099420BD17978012901D0012100E0B1
:10D8000000217B684140002B01D010469847761CD0
:10D81000F6B228788642D8D3F8BD00005C200020FC
:10D8200010B50E4900230A784C78A24212D0521C3F
:10D83000D2B20A70022A00D10B700A78074B92000C
:10D8400018339A580260886810180002000A88602D
:10D85000012010BD0360002010BD000070200020DA
:10D86000002804D00349496E01600020704703205E
:10D870007047000040270020F8B50746104E0125EC
:10D88000BD403068FFF72EF800280DD10D4C2069FF
:10D89000284207D1384600F0A7FB0028E06804D0F2
:10D8A000284303E0A8432061F8BDA843E060206955
:10D8B000002228432061A1683068FEF7CFFFF8BD41
:10D8C00018F301005C200020F8B51E4C20780028D9
:10D8D00036D0E068002600280CD0002560780028AB
:10D8E0002ED1684652DF052806D0002806D0FEF764
:10D8F00057FF0BE00125F1E7012607E0009800F053
:10D900009DFA2169002901D000988847002D13D184
:10D910006078002814D1608869460880A06861DFBB
:10D92000052804D0002804D0FEF73AFF04E00125C2
:10D9300002E0E168A0688847002ECFD0002DE5D036
:10D94000F8BD0000A82000204188054802889142C7
:10D9500004D34088814201D80120704700207047DD
:10D960004C2000201048018CC9B2012917D1818CAC
:10D97000090714D1018D09060A0F03D1828D120601
:10D98000120F0ED0090F012903D1828D1206120F3A
:10D9900007D0032903D1808D0006000F01D000209D
:10D9A0007047012070470000C00F00F010B5044818
:10D9B000017AC90702D00078FFF70CFD10BD000006
:10D9C000FC1F0020F0B5284C2146103948688B68B0
:10D9D000227886469C46CF78667836E018235343F3
:10D9E0006168521CC918A378D2B2934200D10022B8
:10D9F0000B78022B02D0032B27D123E003464D687E
:10DA0000194603E0A94204D00B46C96900291CD07D
:10DA1000F8E7002919D08B4208D1C069002805D148
:10DA2000124F0125BD600025AC4601270D68C9696C
:10DA3000D961002909D00B685B190B6005E00174FE
:10DA4000C06900E000210028F9D19642C6D10649FC
:10DA5000624610398A604860CF70704501D001205D
:10DA6000F0BD0020F0BD000080200020001001402B
:10DA7000F8B52C4E044670680025009041E0002C5B
:10DA800002D02046E46920E02648182310300178AF
:10DA900042684B43491CC9B2D2180170837899423D
:10DAA00000D105701178506801292CD1017C002922
:10DAB00029D191684160D16881601169C160516963
:10DAC0008161F178002900D045604368B268164F43
:10DAD000991A0902090AB94202D28268891806E035
:10DAE000D11A09028268090A8A4202D9511A0160D0
:10DAF00000E005604560012185600174C56101F0A9
:10DB000053F9002CBBD1074810300178407881428E
:10DB1000BAD171680098814201D00120F8BD00207F
:10DB2000F8BD000070200020FFFF7F00FDF772FEAF
:10DB3000FDF778FF70B5144682880E4605462088AA
:10DB4000111D4118921C994201D8FE2A01D90C20BE
:10DB500070BD521C32542088FF21401C80B22080AE
:10DB600031542088401C80B220808119288801F01F
:10DB7000B1FA2188401880B22080AA88002A09D0F2
:10DB8000A968002908D08019FDF7EEFA2088A98835
:10DB900040182080002070BD072070BDF8B50F46EA
:10DBA000017814460546012902D16878002806D07C
:10DBB0002088821C9A422DD8012902D006E0072035
:10DBC000F8BD69784118891C994223D8181A801E1B
:10DBD00086B2684606802188B81C081869467DDF31
:10DBE0000028EDD12878022805D169460988B1427C
:10DBF00001D809210AE00821012805D16878B0423E
:10DC000002D86A46108001E06846068068460088AF
:10DC1000FE2801D90C20F8BD2288401CB854208869
:10DC2000401C80B22080395420886946401C2080E6
:10DC30000988401820800020F8BD000003494018E2
:10DC40000068002800D001207047000000700040EC
:10DC5000C20843075B0F0120895C98400840704769
:10DC60000121890740180068002800D00120704772
:10DC700000280FD00849094A096800BF00BF00BF4B
:10DC800000BF00BF00BF00BF00BF914200D000BF77
:10DC90000138F2D170470000C82000200024F400B1
:10DCA00070B5144CA27C022A16D00222A2746268BB
:10DCB000A260217400216174E0600F481268426024
:10DCC0000E4A86151160012505602068002805D0E0
:10DCD0000B49012048600BE0112070BD3046FFF772
:10DCE000ADFF0028FAD0FEF7A1FB0028F6D0A574FE
:10DCF000002070BD0C27002000750040007100401E
:10DD000000730040074B0022596801E00A46496849
:10DD10008142FBD14868002A01D0506070475860AA
:10DD2000704700000C2700200021064A416051681E
:10DD3000002902D15060704711464A68002AFBD181
:10DD4000486070470C27002070B50C4D0C46A97C2C
:10DD5000002901D0082070BD094A00211160002C63
:10DD600006D0002800D107480178072000F06CF8A1
:10DD700001202C60A874002070BD00000C2700203A
:10DD80000071004014F30100014901200860704750
:10DD90000070004010B5002005490122054C802389
:10DDA00048602360044B9A60044B1A60887410BD6D
:10DDB0000C27002080E100E0007300400470004068
:10DDC00070B50E4C00252078002801D0852513E081
:10DDD0000021A16061602161E160094800680126BD
:10DDE000304002D1032100F02FF800F08DFF002811
:10DDF00001D1044886612670284670BD9426002013
:10DE000000E100E00005004038B5002069460870D8
:10DE10006846FEF77BFD084C2078002801D1FFF70B
:10DE2000CFFFE068401CE0600120A07068460078E9
:10DE3000FEF78AFD38BD00009426002010B50028AA
:10DE400001D1FFF7D9FB10BD8207D30EFF229A4004
:10DE50008907090E10B5994000280BDA03071B0F3C
:10DE6000083B9C080C4BA400E318DC6994430C436A
:10DE7000DC6107E08408094BA400E418236893439D
:10DE80000B432360C106C90E012088400449086085
:10DE90000449086010BD000000ED00E000E400E06F
:10DEA00080E200E000E100E0F3B581B0054600F05B
:10DEB000CBFC1F4F0028284617D0FFF795FBC01951
:10DEC0002030007F8009032802D001280BD005E014
:10DED00018480069E840C007C00F04D00321284655
:10DEE00000F023FAFEBD0221F9E700F0B9FC00289A
:10DEF000F8D02846FFF778FB04468000C11D0E4A83
:10DF0000F9318018026989B201263243026108465C
:10DF100000F03CFA02980028E4D02846FFF764FBA2
:10DF2000800038580028DDD00448A6404660FEBD79
:10DF3000A826002000050050006500400063004056
:10DF4000FEB5044625480E460019202141560027FB
:10DF5000C8171346401C01D008273CE0F278194648
:10DF60002046FFF71DFB0546401C33D0B078002843
:10DF70000BD005200007A10009180720000209188E
:10DF8000086802229043086007E000217378204669
:10DF900000910A46019100F073F9F078002810D042
:10DFA0000F48AA001018317802690E4B1A4002611E
:10DFB000E206D20C8907890B0A4301690A43026110
:10DFC00009E00648327840192030017F9201114360
:10DFD000017700E004273846FEBD0000A826002097
:10DFE00000650040FFE0FCFF03490969C140C80724
:10DFF000C00F00D0012070470005005070B5144DCF
:10E000002879002801D0082070BD1149002040392E
:10E01000421E0B182033401CC0B21A702028F8D3BF
:10E0200000242046FFF7AEFA641CE4B2082CF8D3B3
:10E0300003210620FFF708FFFF207D3000F0A6F93E
:10E0400001200449C007486001202871002070BDEC
:10E05000E82600200063004002480079002800D034
:10E0600001207047E8260020F8B506460F460079E3
:10E070001C2148431A4915464418E07E002801D067
:10E080000820F8BD39463046FEF774FC65603869F3
:10E09000206028460025002813D0FF223068397FF1
:10E0A0001D328550FF223068453285500323306889
:10E0B0001B020C4AC01842603068000B40B2FFF7E8
:10E0C000C3FE052230680421120280180160E57544
:10E0D0002576A5750121E1762846A576F8BD0000D4
:10E0E000F02600208000020070B505460C4600793D
:10E0F0001C21484308494318284600F055F80028D9
:10E1000001D0112070BD9A7500209C60988228462D
:10E1100000F004F870BD0000F0260020F8B50446B9
:10E1200000791C2148431F4900264518FF27206815
:10E130001D37C6512068012181602946206800F002
:10E14000D1FE6968002913D027E0FF270137FF219E
:10E150001D31206800F0C5FA002802D1A88AB84213
:10E16000F5D1A88AB84203D02946206800F0BAFE4B
:10E17000A88AA97D8842E8D3A98AC81FF9380ED099
:10E18000FF271D373946206800F0ABFA0028F9D088
:10E1900020680121C1600020A8753046F8BD0F2617
:10E1A000F9E70000F026002000791C2148430349CC
:10E1B0004018807D002800D001207047F026002004
:10E1C000F8B501791C225143204A00238D180522FD
:10E1D0000168120289180B60696800290CD00324B9
:10E1E000016824021A4B09198B600168C903CB0E20
:10E1F00001219940174B19600522016812028A1803
:10E20000D3685669976814690021C9435161D16088
:10E21000006805221202801881600161581C02D03A
:10E22000184600F055F8701C02D0304600F050F847
:10E23000601C02D0204600F04BF8781C02D0384613
:10E2400000F046F80020E8766860F8BDF02600206F
:10E250008402020080E100E070B552000A43990098
:10E26000049D0A432902059E0A43310405240A43FA
:10E27000240780000721001909024018026070BDC0
:10E2800070B552000A439900049D0A432902059E75
:10E290000A43310405240A4324078000072100199A
:10E2A00009024018026070BD70B552000A4399001F
:10E2B000049D0A432902059E0A43310405240A43AA
:10E2C000240780000721001909024018026070BD70
:10E2D0001CB5002100910B4601220191FFF7E4FFDC
:10E2E0001CBD1CB500220B46009211460192FFF79F
:10E2F000DBFF1CBD1CB5002100910B4601220191E2
:10E300001146FFF7D1FF1CBD0522120780008218BD
:10E31000072000021018026803231B049A430260BE
:10E32000026809040A430260704705221207800050
:10E330008218072000021018026803231B049A4366
:10E340000260026809040A430260704701228240A9
:10E350000348002901D082607047C2607047000006
:10E360000005005038B5084B05241B6800932402B3
:10E370006B46411805E085005D592D192D69401C3B
:10E3800020C28142F7D838BD10F30100024940187D
:10E390000021016070470000006000400349401800
:10E3A0000068012800D00020704700000060004095
:10E3B0000048704731E4010030B5194C054620781B
:10E3C00089B0002805D06078854202D1002009B0CC
:10E3D00030BD202213496846FCF7C6FE002069467E
:10E3E0000875092000900B2001900C2003900A2052
:10E3F00002900D4806900A48001DFFF7E1FE002D2F
:10E4000001D0002200E0094A05486946001DFFF7D7
:10E410002BFE0028DBD1012020706570D6E70000BC
:10E420009C20002020F3010000E0D7019DEF0100B7
:10E43000F0B5C5B00C46002100914D984B991E4691
:10E44000081817460390002C01D00A2000E0002095
:10E45000019000F0E9FA00287ED104AD002E17D11A
:10E4600000986A462918204600F022FD002875D041
:10E470003846FCF79DFEC22800D9C2200446009809
:10E48000224628183946FCF76FFE009800190090C4
:10E49000009901980A1804A8441831328518002000
:10E4A00003E020212170401C641C01998842F8D3AC
:10E4B00000270398864207D3202020706070A07048
:10E4C0002870E41C6D1C2CE04B98864202D24A98BE
:10E4D000805D02E0311A4C98405C2246844601215E
:10E4E00002908B006046D8400007000F092801D930
:10E4F000373000E0303001235B1AD054491EF0D28F
:10E5000020209070D41CFCF72BFE01680298085C58
:10E510008006C00E01D0029800E02E2028706D1CED
:10E52000761C7F1C102FC4D30D2028700A20687021
:10E5300020202070009901980918433104A8009107
:10E5400000F07AFA002809D000F06EFA002805D110
:10E5500000900398864200E000E099D3304645B031
:10E56000F0BDFFB5C7B00025509F1C46059500F0D3
:10E570005BFA002875D1059806AE311805AA4898AF
:10E5800000F096FC002836D03846FF2701370300FC
:10E59000FDF7BFFC0705131B333F4B572500499878
:10E5A000FCF706FE059905464018FF2817D8701895
:10E5B0002A464999FCF7D8FD11E005982368391AD5
:10E5C0003018499AFDF760FC08E0606800900598F3
:10E5D0002368391A3018499AFDF756FC0546294632
:10E5E00005A8FEF7BFFF059900283AD0B94238D8F0
:10E5F00006A800F021FA4BB0F0BDA1686068009059
:10E60000019105982368391A3018499AFDF73CFCA6
:10E61000E4E7201D07C86B4607C305982368391A2D
:10E620003018499AFDF730FCD8E7201D0FC86D4619
:10E630000FC505982368391A3018499AFDF724FC4C
:10E64000CCE7204608300FC801AD0FC560680090C8
:10E6500005982368391A3018499AFDF715FCBDE76B
:10E66000FFE70020C7E700000048704763E50100AE
:10E6700038B50093034B0D465C69134600212A46CA
:10E68000A04738BDA828002010B500231A46FFF780
:10E69000EFFF10BD08B5009201236A46FFF7E8FFBF
:10E6A00008BD1CB50193009202236A46FFF7E0FF04
:10E6B0001CBD0000014A916150617047A8280020EC
:10E6C00070B50120FFF778FE040008D1FFF7CCFFFA
:10E6D0000546FFF76DFE01462846FFF7EBFF204693
:10E6E00070BD4058002800D001207047032212025C
:10E6F00080184068084000D00120704710B5002005
:10E7000088540A4602A10320FFF7C4FF10BD000091
:10E710003A494E464F3A72656376203D2025730A8A
:10E720000000000010B5002801D100F039FA10BD3A
:10E73000F0B53B4D04460188A88889B03A2949D0F4
:10E740000EDC02294AD00026364F102912D011299A
:10E7500026D0132922D100231A4685217FDF36E0F7
:10E7600051293FD052292ED0552917D1A0881321E5
:10E7700076DF2CE00720FEF7D3FD002801D0FEF75E
:10E780000FF8A088A880EE602E613868FEF7AAF81E
:10E7900001210022C9033868FEF760F809B0F0BD16
:10E7A0000020FEF7BDFD002801D0FDF7F9FF002095
:10E7B000C043A880EE602E613868FEF793F8EDE75D
:10E7C000FDF7EEFFEAE700231A461946A9DF002805
:10E7D000F6D1E3E7A088132176DFF8E7A0880021CF
:10E7E00067DFF4E71022A11D04A8FCF7BDFC684612
:10E7F000017C0029D2D0007E042803D0062801D055
:10E800000528CBD1022908D0012069460870FF20D5
:10E8100083308880A088A8DFD9E70220F5E70000D0
:10E82000E81F0020A8F2010010B50078002807D1E9
:10E8300004483B21808876DF002801D0FDF7B0FF37
:10E8400010BD0000E81F002004490818202141568F
:10E85000042901DB0120704700207047A826002012
:10E860000449081820214156042901D2012070478B
:10E8700000207047A8260020012252075110886B03
:10E88000496B41438818704770B501240B496004F7
:10E8900008600B4940108860094940398860094D7B
:10E8A0006C602F20FFF7E4F9AC60074D00242F20A7
:10E8B000AC60FFF7DDF9AC7070BD000080E100E0F6
:10E8C00040130140001001407020002030B5FF22AD
:10E8D0000523CD7D002409321B02C318002D84506E
:10E8E000986905D04B7ECA68D054487E401C487653
:10E8F00030BD70B500240546601C90B00007000FC5
:10E9000008A9103008940870601C0007000F103030
:10E9100048708878F9263040801C88701C2101A836
:10E92000FCF73BFC694608791021084369460871E9
:10E93000029408A80494059407940690287808A9DE
:10E9400088710320694688841120009408704870FB
:10E950008878F7213040801C0840EF2108400126CC
:10E9600030436946887014210AA8FCF716FC09A8F0
:10E970000A9068460B9069460E8614204C8688865D
:10E980002B4668880C330AAA01A9A2DF10B070BD1B
:10E990001FB501246B461C701972019206C86846A7
:10E9A00090471FBD10B50446FDF7D0FA00280CD0E3
:10E9B000A007C00E002C0ADA2107090F08398908C0
:10E9C000144A89008918C96906E0134810BDA108D6
:10E9D000124A890089180968C1400806800F042876
:10E9E00011D200280FD002280DD00D494B68E20645
:10E9F000D20E01209040002B08D0620992008B5863
:10EA000003438B5004E00448401C10BD05490860D6
:10EA1000002010BD00ED00E00120000000E400E057
:10EA20009420002000E100E010B50248FFF7BCFB95
:10EA300010BD0000A020002070B50D460A4601461A
:10EA400001240648FCF790FBEAB204490448FFF7AA
:10EA50004BFB002800D00024204670BDA8270020D2
:10EA6000A0200020FFB50746806A81B01446002828
:10EA70003DD0002538462030009033E00C20B96AA4
:10EA800068430E18B088801CFE2802D90C2005B0FF
:10EA9000F0BD22880299401C885420881622401C10
:10EAA00080B2208002990A542088401C80B22080C5
:10EAB00002994118308800F00DFB2188401880B27F
:10EAC0002080B288002A0AD0B16800290FD0029BAA
:10EAD000C018FCF749FB2088B188401820806D1CC5
:10EAE0000098EDB2007BA842C8D80020CFE70720ED
:10EAF000CDE7000070B504461248134D018A21820B
:10EB0000818A61820078002818D06879002815D1A0
:10EB100000F0BEFB002811D028462030E060022023
:10EB20000849207204202031C87006480021203096
:10EB3000FDF762FF002804D1052000E00320A87043
:10EB4000002070BDAC2400201820002070B50446C1
:10EB500011480426018B2182818B618200780F4D40
:10EB6000002816D06879002813D100F091FB002806
:10EB70000FD028462030E060022020720648002195
:10EB80002030C670FDF738FF002804D10620A87099
:10EB900000E0AE70002070BDAC24002018200020E2
:10EBA00010B50020FEF7BCFB002801D0FDF7F8FDF2
:10EBB000FEF7FAFA002801D0FDF7F2FD3CDF00284D
:10EBC00001D0FDF7EDFD10BD002803D00249C8605B
:10EBD000002070470E207047A82000201CB50F4968
:10EBE00001910091694660DF0446009A01988242D3
:10EBF0000AD00B490220FFF74DFDFFF73DFE0099BB
:10EC0000421A08A1022004E0002C04D0224612A1DE
:10EC10000120FFF73FFD20461CBD0000E81F00203B
:10EC200054FB01005344483A5741524E494E473A2B
:10EC300052414D2073697A652073686F756C64204A
:10EC400062652061646A757374656420746F203036
:10EC5000782578200D0A00005344483A4552524F17
:10EC6000523A73645F626C655F656E61626C653AAF
:10EC7000206572726F7220307825780D0A000000CE
:10EC800070B50E460546144614211046FCF785FA69
:10EC90000120002120802161217326726572002DE0
:10ECA00000D0A072002070BD10B5FDF75BFD10BD57
:10ECB000F8B5002903D08C070025002C01D00720CF
:10ECC000F8BD0E4E0E4FB16072807360396801243A
:10ECD000214003D00A49254680310C60094910DFE4
:10ECE000002803D0002DEBD03C60F8BD3470FFF756
:10ECF0008BF81620FFF756FEF8BD0000A820002074
:10ED000000E100E0A9EC0100014800787047000034
:10ED1000A8200020FEB51F4C0025A768606802905F
:10ED20006846FEF77DFD0190FEF74CFE0646019811
:10ED3000002822D000230098616817E00E680A4678
:10ED4000864202D9301A086012E0801BF3180026B0
:10ED50001660D668D169B446002E07D0FE18360278
:10ED6000360A566066469660D56115460029E5D19B
:10ED700028466160FEF77CFE06E02846FEF778FE36
:10ED8000002801D1002E02D00298FEF749FC002095
:10ED9000E070FEBD702000200120024900050860DF
:10EDA0007047000000E200E010B50E4B59680029E2
:10EDB00006D002680C68A24204D8A21A0A60C16197
:10EDC000586010BD0B4604E00B46C969121B0029B0
:10EDD00004D00C689442F7D3A41A0C600260C1619D
:10EDE000D86110BD702000207CB50D460646002479
:10EDF00069460C706846FDF789FD01A800F0A2F98C
:10EE000000280DD0057046606846084900794870B2
:10EE100068460078FDF798FDFFF7BEFF20467CBDF1
:10EE2000684604240078FDF78FFDF7E78020002076
:10EE3000F8B51D4D6C68002C34D01C480027406884
:10EE4000A968401A0602360A2068B04218D8361A55
:10EE5000C7192246107CE46900280FD000201074E6
:10EE6000EB68002B07D0916950699847002805D0BE
:10EE7000FDF796FC02E0516990698847002CE3D1C8
:10EE800029786878814206D1401CC0B26870022897
:10EE900001D10020687004490006800D18310F5020
:10EEA000FFF77AFFF8BD0000702000200015014038
:10EEB00010B5144602460120002A0BD008461368FC
:10EEC000FF2106A20131FCF7DFFF01462046FEF7D5
:10EED00049FB10BD0021216010BD00005B253038CA
:10EEE000645D0000FF221D32002383508B8A8A68F4
:10EEF000D25C8B8A5B1C8B82052109024018C2619F
:10EF0000704770B58EB005461C216846FCF745F980
:10EF1000694608780C21084369460870002401946A
:10EF20000394049405940694287808A98870022014
:10EF300069460884601C0007000F103007940877AA
:10EF400011204877887FF9210840F721801C08406C
:10EF5000EF2108400126304369468877142109A82B
:10EF6000FCF71BF908A8099007A80A9069468E8546
:10EF70001420CC85088668882B1D09AAA2DF0EB054
:10EF800070BD1FB500226B461A701972816801911D
:10EF9000827506C8684690471FBD000000780128AA
:10EFA00001D10149887070479C200020F0B50C46C3
:10EFB000012185B005464902FFF798FB03210902AC
:10EFC0006F180026002826D0FF2125312846FFF79C
:10EFD00088FB00281FD0FF2025302E508120800084
:10EFE000B860A07E002801D1012068600221684637
:10EFF00001700920C0012918086808600390E17DAC
:10F0000068460172E0680190E675267606CC68468F
:10F01000083C90472DE004212846FFF767FB0028B5
:10F0200027D0FF2109312846FFF75BFB002820D0BD
:10F0300021462846FFF74AFCE07D617E884218D1D0
:10F04000207E002807D0617EE268E0752069E060DC
:10F05000267666760AE0A07E002801D1012068604D
:10F0600081208000B860E675617EE2682046FFF787
:10F070008FFCFF271D3739462846FFF732FB002853
:10F080000FD0A08AA17D884204D221462846FFF7EE
:10F0900029FF06E0EE51A17D002902D02046FFF7AE
:10F0A00070FFFF27453739462846FFF71AFB00282F
:10F0B0000ED0EE51A07E002801D001202860E07D16
:10F0C000002805D0E675617EE2682046FFF760FC07
:10F0D00005B0F0BD0870000A4870022070470000BB
:10F0E00038B51549154A488890420FD04A78144CD3
:10F0F000521CD2B24A70237B934208D3091D75DF9C
:10F10000002803D0A169002900D0884738BD002518
:10F110004D70217C002907D03B2176DF002803D0E9
:10F12000A169002900D0884761690029EED06846AE
:10F130000570884738BD000048200020FFFF000010
:10F140007826002010B509494B788C785A1CD2B229
:10F15000944200D100220C78944201D1002010BDCD
:10F160000270486818214B43C01810BD8020002051
:10F1700070B50D480125C36802465B1CC360E903F6
:10F180000A4C1278012B01D03C2B08D2002A04D063
:10F1900000222068FDF762FB70BD0570F8E7002AC9
:10F1A000FAD10221017070BDE81F0020A8F2010011
:10F1B000FFB583B016460C9D0D9C1F46022200959C
:10F1C0000194039800F00CF8002807D13B46102268
:10F1D000314600950194039800F002F807B0F0BDA5
:10F1E000FFB583B0074600200C9C8646268805465E
:10F1F0003AE07868A90042181188684681805188F1
:10F20000C1800022694601A865DF002839D168461F
:10F2100001780598814226D17046002801D000224D
:10F2200000E002222088891842180D998A4227D8C6
:10F23000714600290AD1401C80B22080069A0499A8
:10F2400011542088401C2080012086462188069881
:10F250000A18694601A865DF002812D1694620888E
:10F260000978401820806D1C3888A842C1DC70469F
:10F2700000280AD02088801B401E80B2FF2802D9B7
:10F280000C2007B0F0BD069988550020F9E7000072
:10F2900004480179002902D1007B002800D0012018
:10F2A0007047000038200020CC200020010000071B
:10F2B0000B00000009000000080000000A00000028
:10F2C0000000000000E0D7011516171811121314E2
:10F2D00040240020602400208C2400201100030022
:10F2E000CDD1010012000300CDD1010013000300B5
:10F2F000CDD1010014000300CDD10100582600201B
:10F300009ECADC240EE5A9E093F3A3B50000406E8D
:10F310000000005003000000202700200300000030
:10F32000FFFFFFFFFFFFFFFFFFFFFFFFFFFFFFFFED
:10F33000000000000000000000E0D7010300000012
:10F3400003000000D8FF0000D03A0400D9FF0000FD
:10F35000B0050400DAFF0000F4D00300DBFF00007A
:10F36000009D0300DCFF0000006B0300DDFF0000D8
:10F370002C3A0300DEFF0000B00B0300DFFF0000AB
:10F38000C4DE0200E0FF000094B40200E1FF0000D0
:10F39000588C0200E2FF000010660200E3FF00004C
:10F3A00084420200E4FF000088200200E5FF000024
:10F3B000E4000200E6FF000034E30100E7FF000084
:10F3C00078C70100E8FF0000B0AD0100E9FF0000D0
:10F3D00014950100EAFF00006C7E0100EBFF0000C5
:10F3E00054690100ECFF000086550100EDFF0000AC
:10F3F00066430100EEFF000068320100EFFF0000ED
:10F4000078220100F0FF000082130100F1FF0000EC
:10F4100068050100F2FF000034F80000F3FF00006F
:10F42000B4EB0000F4FF0000F2DF0000F5FF000085
:10F43000E4D40000F6FF00006CCA0000F7FF0000F3
:10F4400080C00000F8FF00002AB70000F9FF0000AC
:10F450004CAE0000FAFF0000F0A50000FBFF00002A
:10F46000029E0000FCFF000082960000FDFF0000ED
:10F470005C8F0000FEFF00009A880000FFFF000084
:10F4800032820000000000001A7C00000100000031
:10F490002A760000020000009470000003000000C3
:10F4A0003A6B000004000000306600000500000018
:10F4B0006C61000006000000DA5C0000070000003C
:10F4C0008E5800000800000074540000090000007D
:10F4D000965000000A000000E04C00000B00000005
:10F4E0005C4900000C0000000A4600000D0000000E
:10F4F000E04200000E000000DE3F00000F000000B0
:10F50000043D000010000000523A0000110000000D
:10F51000B4370000120000003E3500001300000068
:10F52000F032000014000000B630000015000000AA
:10F53000902E000016000000922C00001700000022
:10F540009E2A000018000000D228000019000000C8
:10F55000102700001A000000672500001B000000B3
:10F56000D22300001C000000502200001D000000FB
:10F57000E02000001E000000801F00001F000000AF
:10F58000321E000020000000F21C000021000000DC
:10F59000C21B0000220000009F1A00002300000090
:10F5A0008A190000240000008118000025000000D6
:10F5B00084170000260000009216000027000000BB
:10F5C000AC15000028000000CF1400002900000046
:10F5D000FD1300002A000000331300002B00000080
:10F5E000731200002C000000BB1100002D00000071
:10F5F0000B1100002E000000631000002F0000001F
:10F60000C20F000030000000280F00003100000091
:10F61000950E000032000000080E000033000000CC
:10F62000810D000034000000000D000035000000D6
:10F63000840C0000360000000E0C000037000000B3
:10F640009C0B0000380000002F0B00003900000068
:10F65000C70A00003A000000630A00003B000000F7
:10F66000040A00003C000000A80900003D00000062
:10F67000500900003E000000FB0800003F000000B1
:10F68000AA080000400000005D08000041000000E2
:10F690001208000042000000CA07000043000000FA
:10F6A00086070000440000004407000045000000F9
:10F6B0000407000046000000C706000047000000E5
:10F6C0008D060000480000005506000049000000BB
:10F6D0001F0600004A000000EB0500004B00000080
:10F6E000B90500004C000000890500004D00000035
:10F6F0005B0500004E0000002E0500004F000000DA
:10F700000405000050000000DB0400005100000070
:10F71000B3040000520000008D04000053000000FC
:10F72000680400005400000045040000550000007B
:10F7300023040000560000000304000057000000EE
:10F74000E403000058000000C50300005900000059
:10F75000A80300005A0000008C0300005B000000BA
:10F76000710300005C000000570300005D00000012
:10F770003E0300005E000000250300005F00000063
:10F780000E03000060000000F702000061000000AE
:10F79000E102000062000000CB02000063000000F4
:10F7A000B702000064000000A20200006500000033
:10F7B00090020000660000007E020000670000006A
:10F7C0006C020000680000005B020000690000009D
:10F7D0004A0200006A000000390200006B000000CD
:10F7E0002A0200006C0000001A0200006D000000F8
:10F7F0000B0200006E000000FC0100006F00000022
:10F80000EE01000070000000E00100007100000047
:10F81000D301000072000000C60100007300000068
:10F82000B901000074000000AD0100007500000087
:10F83000A1010000760000009601000077000000A2
:10F840008A010000780000008001000079000000BB
:10F85000750100007A0000006B0100007B000000D1
:10F86000610100007C000000570100007D000000E5
:10F870004E0100007E000000450100007F000000F6
:10F880003D01000080000000340100008100000004
:10F890002C01000082000000240100008300000011
:10F8A0001D0100008400000015010000850000001B
:10F8B0000E01000086000000070100008700000024
:10F8C0000101000088000000FA000000890000002B
:10F8D000F40000008A000000EE0000008B00000031
:10F8E000E80000008C000000E20000008D00000035
:10F8F000DC0000008E000000D70000008F00000038
:10F90000D200000090000000CC0000009100000038
:10F91000C700000092000000C30000009300000038
:10F92000BE00000094000000BA0000009500000036
:10F93000B500000096000000B10000009700000034
:10F94000AD00000098000000A90000009900000030
:10F95000A50000009A000000A10000009B0000002C
:10F960009E0000009C0000009A0000009D00000026
:10F97000970000009E000000930000009F00000020
:10F9800090000000A00000008D000000A100000019
:10F990008A000000A200000087000000A300000011
:10F9A00084000000A400000081000000A500000009
:10F9B0007F000000A60000007C000000A7000000FF
:10F9C00079000000A800000077000000A9000000F6
:10F9D00074000000AA00000072000000AB000000EC
:10F9E00070000000AC0000006D000000AD000000E1
:10F9F0006B000000AE00000069000000AF000000D6
:10FA000067000000B000000065000000B1000000C9
:10FA100063000000B200000061000000B3000000BD
:10FA20005F000000B40000005D000000B5000000B1
:10FA30005B000000B600000059000000B7000000A5
:10FA400057000000B800000056000000B900000098
:10FA500054000000BA00000052000000BB0000008B
:10FA600051000000BC0000004F000000BD0000007D
:10FA70004D000000BE0000004C000000BF00000070
:10FA80004A000000C000000049000000C100000062
:10FA900047000000C200000046000000C300000054
:10FAA00045000000C400000043000000C500000045
:10FAB00042000000C600000041000000C700000036
:10FAC0003F000000C80000003E0000000040404031
:10FAD0004040404040404141414141404040404021
:10FAE00040404040404040404040404040050202CD
:10FAF000020202020202020202020202022020208C
:10FB000020202020202020020202020202029090E7
:10FB100090909090101010101010101010101010E5
:10FB20001010101010101010020202020202888839
:10FB30008888888808080808080808080808080845
:10FB4000080808080808080802020202400000002D
:10FB5000CDFA01005344483A5741524E494E473A74
:10FB600073645F626C655F656E61626C653A2052BA
:10FB7000414D2073746172742073686F756C6420DA
:10FB800062652061646A757374656420746F2030E7
:10FB90007825780D0A000000B8FB0100E81F00205E
:10FBA000E40000002CBF01009CFC0100CC200020E0
:10FBB000FC0F00003CBF010000000A00FFFF010035
:10FBC0000200000000000000000000000000000033
:10FBD0000000000000000000000000000000000025
:10FBE0000000000000000000000000000000000015
:10FBF0000000000000000000000000000000000005
:10FC00000000000000000000182600200000000096
:10FC10003826002000000000000000000000000066
:10FC200000000000000000000000000000000000D4
:10FC300000000000000000000000000000000000C4
:10FC400000000000000000000000000000000000B4
:10FC500000000000000000000000000000000000A4
:10FC60000000000000000000000000000000000094
:10FC70000020004000000000000000000000000024
:10FC80000000000000000000000000000000000074
:0CFC90006A040000000000000024F400E2
:040000050001B0C185
:00000001FF
